{
  "address": "0x9dedE0Fa91030E5C4DeC465fd540581144eEe1a2",
  "abi": [
    {
      "anonymous": false,
      "inputs": [
        {
          "indexed": false,
          "internalType": "string",
          "name": "apiUrl",
          "type": "string"
        }
      ],
      "name": "ApiUrlSet",
      "type": "event"
    },
    {
      "anonymous": false,
      "inputs": [
        {
          "indexed": true,
          "internalType": "bytes32",
          "name": "userId",
          "type": "bytes32"
        },
        {
          "indexed": true,
          "internalType": "bytes32",
          "name": "taskId",
          "type": "bytes32"
        }
      ],
      "name": "TaskAccepted",
      "type": "event"
    },
    {
      "anonymous": false,
      "inputs": [
        {
          "indexed": true,
          "internalType": "bytes32",
          "name": "taskId",
          "type": "bytes32"
        }
      ],
      "name": "TaskCreated",
      "type": "event"
    },
    {
      "anonymous": false,
      "inputs": [
        {
          "indexed": true,
          "internalType": "bytes32",
          "name": "taskId",
          "type": "bytes32"
        }
      ],
      "name": "TaskDeleted",
      "type": "event"
    },
    {
      "anonymous": false,
      "inputs": [
        {
          "indexed": true,
          "internalType": "address",
          "name": "entity",
          "type": "address"
        }
      ],
      "name": "TasksRestart",
      "type": "event"
    },
    {
      "anonymous": false,
      "inputs": [
        {
          "indexed": true,
          "internalType": "bytes32",
          "name": "userId",
          "type": "bytes32"
        }
      ],
      "name": "UserDeleted",
      "type": "event"
    },
    {
      "anonymous": false,
      "inputs": [
        {
          "indexed": true,
          "internalType": "bytes32",
          "name": "userId",
          "type": "bytes32"
        }
      ],
      "name": "UserRegistered",
      "type": "event"
    },
    {
      "inputs": [],
      "name": "TIME_TO_ACCEPT_TASK",
      "outputs": [
        {
          "internalType": "uint32",
          "name": "",
          "type": "uint32"
        }
      ],
      "stateMutability": "view",
      "type": "function"
    },
    {
      "inputs": [
        {
          "internalType": "bytes32",
          "name": "_userId",
          "type": "bytes32"
        },
        {
          "internalType": "bytes32",
          "name": "_taskId",
          "type": "bytes32"
        }
      ],
      "name": "acceptTask",
      "outputs": [],
      "stateMutability": "nonpayable",
      "type": "function"
    },
    {
      "inputs": [],
      "name": "apiUrl",
      "outputs": [
        {
          "internalType": "string",
          "name": "",
          "type": "string"
        }
      ],
      "stateMutability": "view",
      "type": "function"
    },
    {
      "inputs": [
        {
          "internalType": "bytes32",
          "name": "_taskId",
          "type": "bytes32"
        }
      ],
      "name": "createTask",
      "outputs": [],
      "stateMutability": "nonpayable",
      "type": "function"
    },
    {
      "inputs": [
        {
          "internalType": "bytes32",
          "name": "_userId",
          "type": "bytes32"
        }
      ],
      "name": "registerUser",
      "outputs": [],
      "stateMutability": "nonpayable",
      "type": "function"
    },
    {
      "inputs": [],
      "name": "restart",
      "outputs": [],
      "stateMutability": "nonpayable",
      "type": "function"
    },
    {
      "inputs": [
        {
          "internalType": "string",
          "name": "_apiUrl",
          "type": "string"
        }
      ],
      "name": "setApiUrl",
      "outputs": [],
      "stateMutability": "nonpayable",
      "type": "function"
    }
  ],
  "transactionHash": "0x4d4964a6e30fe1835666610ef7d54cde03d84895ffc4ead2355f200dc92038b5",
  "args": [],
  "solcInputHash": "00232639b1870a2f8d56428b9d51d924",
  "bytecode": "0x608060405234801561001057600080fd5b506110d5806100206000396000f3fe608060405234801561001057600080fd5b506004361061007d5760003560e01c80634988a5691161005b5780634988a569146100c65780638367e120146100e2578063b293e81c14610100578063e8c75a301461011c5761007d565b806303f33ef2146100825780631ef3755d146100a05780632dc03259146100aa575b600080fd5b61008a610138565b6040516100979190610eab565b60405180910390f35b6100a861013f565b005b6100c460048036038101906100bf9190610d46565b610368565b005b6100e060048036038101906100db9190610d6f565b6104b9565b005b6100ea610910565b6040516100f79190610e89565b60405180910390f35b61011a60048036038101906101159190610d46565b61099e565b005b61013660048036038101906101319190610dab565b610ba1565b005b6203f48081565b60005b6002805490508110156102445760006002828154811061018b577f4e487b7100000000000000000000000000000000000000000000000000000000600052603260045260246000fd5b90600052602060002001549050600060016000838152602001908152602001600020905060008160020160006101000a81548160ff021916908360038111156101fd577f4e487b7100000000000000000000000000000000000000000000000000000000600052602160045260246000fd5b0217905550817fa96209878fc4722b56527db6cf4b72ad6bfddb3ad9968f7de1125d02acc9aa1060405160405180910390a25050808061023c90610fd0565b915050610142565b5060005b60055481101561030c57600060046000838152602001908152602001600020549050600060036000838152602001908152602001600020905060008160010160006101000a81548160ff02191690831515021790555060006006600084815260200190815260200160002060006101000a81548160ff021916908315150217905550817fc26eb30613e535870aeacfc24e58a8fb60e992f0d8bfe04ec9c98db26b53c5e560405160405180910390a25050808061030490610fd0565b915050610248565b506002600061031b9190610c06565b60006005819055503373ffffffffffffffffffffffffffffffffffffffff167f27563bd9f3c446b90907219bff4dda76f7ca7ede071560f5856f9848e04048b160405160405180910390a2565b806003600082815260200190815260200160002060010160009054906101000a900460ff16156040518060400160405280601381526020017f555345525f414c52454144595f4558495354530000000000000000000000000081525090610405576040517f08c379a00000000000000000000000000000000000000000000000000000000081526004016103fc9190610e89565b60405180910390fd5b508160046000600554815260200190815260200160002081905550600554600360008481526020019081526020016000206000018190555060016003600084815260200190815260200160002060010160006101000a81548160ff0219169083151502179055506104826001600554610bf090919063ffffffff16565b600581905550817f78997021e09413de1e36500ed07f9f6c73541162817fc3ea6a115e5e3d3affb960405160405180910390a25050565b816003600082815260200190815260200160002060010160009054906101000a900460ff166040518060400160405280600f81526020017f555345525f444f4e545f4558495354000000000000000000000000000000000081525090610555576040517f08c379a000000000000000000000000000000000000000000000000000000000815260040161054c9190610e89565b60405180910390fd5b508160006003811115610591577f4e487b7100000000000000000000000000000000000000000000000000000000600052602160045260246000fd5b6001600083815260200190815260200160002060020160009054906101000a900460ff1660038111156105ed577f4e487b7100000000000000000000000000000000000000000000000000000000600052602160045260246000fd5b14156040518060400160405280600f81526020017f5441534b5f444f4e545f4558495354000000000000000000000000000000000081525090610666576040517f08c379a000000000000000000000000000000000000000000000000000000000815260040161065d9190610e89565b60405180910390fd5b50826000600160008381526020019081526020016000209050600160038111156106b9577f4e487b7100000000000000000000000000000000000000000000000000000000600052602160045260246000fd5b8160020160009054906101000a900460ff166003811115610703577f4e487b7100000000000000000000000000000000000000000000000000000000600052602160045260246000fd5b146040518060400160405280601281526020017f5441534b5f4e4f545f415641494c41424c4500000000000000000000000000008152509061077b576040517f08c379a00000000000000000000000000000000000000000000000000000000081526004016107729190610e89565b60405180910390fd5b50856006600082815260200190815260200160002060009054906101000a900460ff16156040518060400160405280600d81526020017f555345525f4841535f5441534b0000000000000000000000000000000000000081525090610816576040517f08c379a000000000000000000000000000000000000000000000000000000000815260040161080d9190610e89565b60405180910390fd5b5060016006600089815260200190815260200160002060006101000a81548160ff02191690831515021790555060026001600088815260200190815260200160002060020160006101000a81548160ff021916908360038111156108a3577f4e487b7100000000000000000000000000000000000000000000000000000000600052602160045260246000fd5b02179055506003600088815260200190815260200160002060000154600160008881526020019081526020016000206000018190555085877f79abe3f1773abfb5f6cb7b5538ca39f03dcbb7ee4b9a991d76885cf70bd469fb60405160405180910390a350505050505050565b6000805461091d90610f9e565b80601f016020809104026020016040519081016040528092919081815260200182805461094990610f9e565b80156109965780601f1061096b57610100808354040283529160200191610996565b820191906000526020600020905b81548152906001019060200180831161097957829003601f168201915b505050505081565b80600060038111156109d9577f4e487b7100000000000000000000000000000000000000000000000000000000600052602160045260246000fd5b6001600083815260200190815260200160002060020160009054906101000a900460ff166003811115610a35577f4e487b7100000000000000000000000000000000000000000000000000000000600052602160045260246000fd5b146040518060400160405280600b81526020017f5441534b5f45584953545300000000000000000000000000000000000000000081525090610aad576040517f08c379a0000000000000000000000000000000000000000000000000000000008152600401610aa49190610e89565b60405180910390fd5b50600060016000848152602001908152602001600020905060008160000181905550610aeb6203f48063ffffffff1642610bf090919063ffffffff16565b816001018190555060018160020160006101000a81548160ff02191690836003811115610b41577f4e487b7100000000000000000000000000000000000000000000000000000000600052602160045260246000fd5b02179055506002839080600181540180825580915050600190039060005260206000200160009091909190915055827f1e28175955a872c8252a6e5cf36ac6b318d074eb78b49731e5cb9ddc2d870b6360405160405180910390a2505050565b818160009190610bb2929190610c27565b507fd72e0c57dfc415d699dbb367f561821dd76f681a6d3916009299d4e89b5f3bcf8282604051610be4929190610e65565b60405180910390a15050565b60008183610bfe9190610ee2565b905092915050565b5080546000825590600052602060002090810190610c249190610cad565b50565b828054610c3390610f9e565b90600052602060002090601f016020900481019282610c555760008555610c9c565b82601f10610c6e57803560ff1916838001178555610c9c565b82800160010185558215610c9c579182015b82811115610c9b578235825591602001919060010190610c80565b5b509050610ca99190610cca565b5090565b5b80821115610cc6576000816000905550600101610cae565b5090565b5b80821115610ce3576000816000905550600101610ccb565b5090565b600081359050610cf681611088565b92915050565b60008083601f840112610d0e57600080fd5b8235905067ffffffffffffffff811115610d2757600080fd5b602083019150836001820283011115610d3f57600080fd5b9250929050565b600060208284031215610d5857600080fd5b6000610d6684828501610ce7565b91505092915050565b60008060408385031215610d8257600080fd5b6000610d9085828601610ce7565b9250506020610da185828601610ce7565b9150509250929050565b60008060208385031215610dbe57600080fd5b600083013567ffffffffffffffff811115610dd857600080fd5b610de485828601610cfc565b92509250509250929050565b6000610dfc8385610ed1565b9350610e09838584610f5c565b610e1283611077565b840190509392505050565b6000610e2882610ec6565b610e328185610ed1565b9350610e42818560208601610f6b565b610e4b81611077565b840191505092915050565b610e5f81610f4c565b82525050565b60006020820190508181036000830152610e80818486610df0565b90509392505050565b60006020820190508181036000830152610ea38184610e1d565b905092915050565b6000602082019050610ec06000830184610e56565b92915050565b600081519050919050565b600082825260208201905092915050565b6000610eed82610f42565b9150610ef883610f42565b9250827fffffffffffffffffffffffffffffffffffffffffffffffffffffffffffffffff03821115610f2d57610f2c611019565b5b828201905092915050565b6000819050919050565b6000819050919050565b600063ffffffff82169050919050565b82818337600083830152505050565b60005b83811015610f89578082015181840152602081019050610f6e565b83811115610f98576000848401525b50505050565b60006002820490506001821680610fb657607f821691505b60208210811415610fca57610fc9611048565b5b50919050565b6000610fdb82610f42565b91507fffffffffffffffffffffffffffffffffffffffffffffffffffffffffffffffff82141561100e5761100d611019565b5b600182019050919050565b7f4e487b7100000000000000000000000000000000000000000000000000000000600052601160045260246000fd5b7f4e487b7100000000000000000000000000000000000000000000000000000000600052602260045260246000fd5b6000601f19601f8301169050919050565b61109181610f38565b811461109c57600080fd5b5056fea2646970667358221220d1e578d0b3bb1de86ce72bd33969e7595a97d141fb27a3b11582a1fe7e67f26b64736f6c63430008040033",
  "devdoc": {
    "kind": "dev",
    "methods": {
      "createTask(bytes32)": {
        "params": {
          "_taskId": "The task's id."
        }
      }
    },
    "version": 1
  },
  "userdoc": {
    "events": {
      "TaskCreated(bytes32)": {
        "notice": "Events"
      },
      "TasksRestart(address)": {
        "notice": "Events"
      }
    },
    "kind": "user",
    "methods": {
      "apiUrl()": {
        "notice": "State"
      },
      "createTask(bytes32)": {
        "notice": "Create a new task."
      },
      "setApiUrl(string)": {
        "notice": "ACL"
      }
    },
    "version": 1
  },
  "storageLayout": {
    "storage": [
      {
        "astId": 325,
        "contract": "contracts/allocation-models/FCFSTAA.sol:FCFSTAA",
        "label": "apiUrl",
        "offset": 0,
        "slot": "0",
        "type": "t_string_storage"
      },
      {
        "astId": 387,
        "contract": "contracts/allocation-models/FCFSTAA.sol:FCFSTAA",
        "label": "tasks",
        "offset": 0,
        "slot": "1",
        "type": "t_mapping(t_bytes32,t_struct(Task)418_storage)"
      },
      {
        "astId": 390,
        "contract": "contracts/allocation-models/FCFSTAA.sol:FCFSTAA",
        "label": "taskIds",
        "offset": 0,
        "slot": "2",
        "type": "t_array(t_bytes32)dyn_storage"
      },
      {
        "astId": 395,
        "contract": "contracts/allocation-models/FCFSTAA.sol:FCFSTAA",
        "label": "users",
        "offset": 0,
        "slot": "3",
        "type": "t_mapping(t_bytes32,t_struct(User)410_storage)"
      },
      {
        "astId": 399,
        "contract": "contracts/allocation-models/FCFSTAA.sol:FCFSTAA",
        "label": "userIndexToId",
        "offset": 0,
        "slot": "4",
        "type": "t_mapping(t_uint256,t_bytes32)"
      },
      {
        "astId": 401,
        "contract": "contracts/allocation-models/FCFSTAA.sol:FCFSTAA",
        "label": "numberOfUsers",
        "offset": 0,
        "slot": "5",
        "type": "t_uint256"
      },
      {
        "astId": 405,
        "contract": "contracts/allocation-models/FCFSTAA.sol:FCFSTAA",
        "label": "userTaskRegistry",
        "offset": 0,
        "slot": "6",
        "type": "t_mapping(t_bytes32,t_bool)"
      }
    ],
    "types": {
      "t_array(t_bytes32)dyn_storage": {
        "base": "t_bytes32",
        "encoding": "dynamic_array",
        "label": "bytes32[]",
        "numberOfBytes": "32"
      },
      "t_bool": {
        "encoding": "inplace",
        "label": "bool",
        "numberOfBytes": "1"
      },
      "t_bytes32": {
        "encoding": "inplace",
        "label": "bytes32",
        "numberOfBytes": "32"
      },
      "t_enum(Status)382": {
        "encoding": "inplace",
        "label": "enum FCFSTAA.Status",
        "numberOfBytes": "1"
      },
      "t_mapping(t_bytes32,t_bool)": {
        "encoding": "mapping",
        "key": "t_bytes32",
        "label": "mapping(bytes32 => bool)",
        "numberOfBytes": "32",
        "value": "t_bool"
      },
      "t_mapping(t_bytes32,t_struct(Task)418_storage)": {
        "encoding": "mapping",
        "key": "t_bytes32",
        "label": "mapping(bytes32 => struct FCFSTAA.Task)",
        "numberOfBytes": "32",
        "value": "t_struct(Task)418_storage"
      },
      "t_mapping(t_bytes32,t_struct(User)410_storage)": {
        "encoding": "mapping",
        "key": "t_bytes32",
        "label": "mapping(bytes32 => struct FCFSTAA.User)",
        "numberOfBytes": "32",
        "value": "t_struct(User)410_storage"
      },
      "t_mapping(t_uint256,t_bytes32)": {
        "encoding": "mapping",
        "key": "t_uint256",
        "label": "mapping(uint256 => bytes32)",
        "numberOfBytes": "32",
        "value": "t_bytes32"
      },
      "t_string_storage": {
        "encoding": "bytes",
        "label": "string",
        "numberOfBytes": "32"
      },
      "t_struct(Task)418_storage": {
        "encoding": "inplace",
        "label": "struct FCFSTAA.Task",
        "members": [
          {
            "astId": 412,
            "contract": "contracts/allocation-models/FCFSTAA.sol:FCFSTAA",
            "label": "userIndex",
            "offset": 0,
            "slot": "0",
            "type": "t_uint256"
          },
          {
            "astId": 414,
            "contract": "contracts/allocation-models/FCFSTAA.sol:FCFSTAA",
            "label": "endDate",
            "offset": 0,
            "slot": "1",
            "type": "t_uint256"
          },
          {
            "astId": 417,
            "contract": "contracts/allocation-models/FCFSTAA.sol:FCFSTAA",
            "label": "status",
            "offset": 0,
            "slot": "2",
            "type": "t_enum(Status)382"
          }
        ],
        "numberOfBytes": "96"
      },
      "t_struct(User)410_storage": {
        "encoding": "inplace",
        "label": "struct FCFSTAA.User",
        "members": [
          {
            "astId": 407,
            "contract": "contracts/allocation-models/FCFSTAA.sol:FCFSTAA",
            "label": "index",
            "offset": 0,
            "slot": "0",
            "type": "t_uint256"
          },
          {
            "astId": 409,
            "contract": "contracts/allocation-models/FCFSTAA.sol:FCFSTAA",
            "label": "exists",
            "offset": 0,
            "slot": "1",
            "type": "t_bool"
          }
        ],
        "numberOfBytes": "64"
      },
      "t_uint256": {
        "encoding": "inplace",
        "label": "uint256",
        "numberOfBytes": "32"
      }
    }
  }
}