{
  "address": "0x48d0c77Cb15Bb7d6c432908F986b74820dE1ee9D",
  "abi": [
    {
      "anonymous": false,
      "inputs": [
        {
          "indexed": false,
          "internalType": "string",
          "name": "apiUrl",
          "type": "string"
        }
      ],
      "name": "ApiUrlSet",
      "type": "event"
    },
    {
      "anonymous": false,
      "inputs": [
        {
          "indexed": true,
          "internalType": "bytes32",
          "name": "userId",
          "type": "bytes32"
        },
        {
          "indexed": true,
          "internalType": "bytes32",
          "name": "taskId",
          "type": "bytes32"
        }
      ],
      "name": "RejecterDeleted",
      "type": "event"
    },
    {
      "anonymous": false,
      "inputs": [
        {
          "indexed": true,
          "internalType": "bytes32",
          "name": "userId",
          "type": "bytes32"
        },
        {
          "indexed": true,
          "internalType": "bytes32",
          "name": "taskId",
          "type": "bytes32"
        }
      ],
      "name": "TaskAccepted",
      "type": "event"
    },
    {
      "anonymous": false,
      "inputs": [
        {
          "indexed": true,
          "internalType": "bytes32",
          "name": "userId",
          "type": "bytes32"
        },
        {
          "indexed": true,
          "internalType": "bytes32",
          "name": "taskId",
          "type": "bytes32"
        },
        {
          "indexed": false,
          "internalType": "bytes32",
          "name": "previousUserId",
          "type": "bytes32"
        }
      ],
      "name": "TaskAllocated",
      "type": "event"
    },
    {
      "anonymous": false,
      "inputs": [
        {
          "indexed": true,
          "internalType": "bytes32",
          "name": "taskId",
          "type": "bytes32"
        }
      ],
      "name": "TaskCreated",
      "type": "event"
    },
    {
      "anonymous": false,
      "inputs": [
        {
          "indexed": true,
          "internalType": "bytes32",
          "name": "taskId",
          "type": "bytes32"
        }
      ],
      "name": "TaskDeleted",
      "type": "event"
    },
    {
      "anonymous": false,
      "inputs": [
        {
          "indexed": true,
          "internalType": "bytes32",
          "name": "userId",
          "type": "bytes32"
        },
        {
          "indexed": true,
          "internalType": "bytes32",
          "name": "taskId",
          "type": "bytes32"
        }
      ],
      "name": "TaskRejected",
      "type": "event"
    },
    {
      "anonymous": false,
      "inputs": [
        {
          "indexed": true,
          "internalType": "address",
          "name": "entity",
          "type": "address"
        }
      ],
      "name": "TasksRestart",
      "type": "event"
    },
    {
      "anonymous": false,
      "inputs": [
        {
          "indexed": true,
          "internalType": "bytes32",
          "name": "userId",
          "type": "bytes32"
        }
      ],
      "name": "UserDeleted",
      "type": "event"
    },
    {
      "anonymous": false,
      "inputs": [
        {
          "indexed": true,
          "internalType": "bytes32",
          "name": "userId",
          "type": "bytes32"
        }
      ],
      "name": "UserRegistered",
      "type": "event"
    },
    {
      "inputs": [],
      "name": "MAX_ALLOCATED_TASKS",
      "outputs": [
        {
          "internalType": "uint8",
          "name": "",
          "type": "uint8"
        }
      ],
      "stateMutability": "view",
      "type": "function"
    },
    {
      "inputs": [
        {
          "internalType": "bytes32",
          "name": "_userId",
          "type": "bytes32"
        },
        {
          "internalType": "bytes32",
          "name": "_taskId",
          "type": "bytes32"
        }
      ],
      "name": "acceptTask",
      "outputs": [],
      "stateMutability": "nonpayable",
      "type": "function"
    },
    {
      "inputs": [
        {
          "internalType": "bytes32",
          "name": "_taskId",
          "type": "bytes32"
        },
        {
          "internalType": "bytes32",
          "name": "_userId",
          "type": "bytes32"
        }
      ],
      "name": "allocateTask",
      "outputs": [],
      "stateMutability": "nonpayable",
      "type": "function"
    },
    {
      "inputs": [],
      "name": "apiUrl",
      "outputs": [
        {
          "internalType": "string",
          "name": "",
          "type": "string"
        }
      ],
      "stateMutability": "view",
      "type": "function"
    },
    {
      "inputs": [
        {
          "internalType": "bytes32",
          "name": "_taskId",
          "type": "bytes32"
        },
        {
          "internalType": "uint256",
          "name": "reallocationTime",
          "type": "uint256"
        }
      ],
      "name": "createTask",
      "outputs": [],
      "stateMutability": "nonpayable",
      "type": "function"
    },
    {
      "inputs": [
        {
          "internalType": "bytes32",
          "name": "_userId",
          "type": "bytes32"
        },
        {
          "internalType": "uint256",
          "name": "_taskIndex",
          "type": "uint256"
        }
      ],
      "name": "getAllocatedTask",
      "outputs": [
        {
          "internalType": "bytes32",
          "name": "",
          "type": "bytes32"
        }
      ],
      "stateMutability": "view",
      "type": "function"
    },
    {
      "inputs": [
        {
          "internalType": "bytes32",
          "name": "_taskId",
          "type": "bytes32"
        },
        {
          "internalType": "bytes32",
          "name": "_userId",
          "type": "bytes32"
        }
      ],
      "name": "getRejecter",
      "outputs": [
        {
          "internalType": "bool",
          "name": "",
          "type": "bool"
        }
      ],
      "stateMutability": "view",
      "type": "function"
    },
    {
      "inputs": [
        {
          "internalType": "bytes32",
          "name": "_taskId",
          "type": "bytes32"
        }
      ],
      "name": "getTask",
      "outputs": [
        {
          "internalType": "bytes32",
          "name": "assignee",
          "type": "bytes32"
        },
        {
          "internalType": "uint256",
          "name": "allocationIndex",
          "type": "uint256"
        },
        {
          "internalType": "uint256",
          "name": "endDate",
          "type": "uint256"
        },
        {
          "internalType": "enum RoundRobinTAA.Status",
          "name": "status",
          "type": "uint8"
        },
        {
          "internalType": "uint256",
          "name": "reallocationTime",
          "type": "uint256"
        }
      ],
      "stateMutability": "view",
      "type": "function"
    },
    {
      "inputs": [
        {
          "internalType": "bytes32",
          "name": "_userId",
          "type": "bytes32"
        }
      ],
      "name": "getUser",
      "outputs": [
        {
          "internalType": "uint256",
          "name": "index",
          "type": "uint256"
        },
        {
          "internalType": "uint256",
          "name": "benefits",
          "type": "uint256"
        },
        {
          "internalType": "bool",
          "name": "available",
          "type": "bool"
        },
        {
          "internalType": "bool",
          "name": "exists",
          "type": "bool"
        },
        {
          "internalType": "uint256",
          "name": "allocatedTasksLength",
          "type": "uint256"
        }
      ],
      "stateMutability": "view",
      "type": "function"
    },
    {
      "inputs": [],
      "name": "getUserLength",
      "outputs": [
        {
          "internalType": "uint256",
          "name": "",
          "type": "uint256"
        }
      ],
      "stateMutability": "view",
      "type": "function"
    },
    {
      "inputs": [
        {
          "internalType": "bytes32",
          "name": "_taskId",
          "type": "bytes32"
        }
      ],
      "name": "reallocateTask",
      "outputs": [],
      "stateMutability": "nonpayable",
      "type": "function"
    },
    {
      "inputs": [
        {
          "internalType": "bytes32",
          "name": "_userId",
          "type": "bytes32"
        }
      ],
      "name": "registerUser",
      "outputs": [],
      "stateMutability": "nonpayable",
      "type": "function"
    },
    {
      "inputs": [
        {
          "internalType": "bytes32",
          "name": "_userId",
          "type": "bytes32"
        },
        {
          "internalType": "bytes32",
          "name": "_taskId",
          "type": "bytes32"
        }
      ],
      "name": "rejectTask",
      "outputs": [],
      "stateMutability": "nonpayable",
      "type": "function"
    },
    {
      "inputs": [],
      "name": "restart",
      "outputs": [],
      "stateMutability": "nonpayable",
      "type": "function"
    },
    {
      "inputs": [
        {
          "internalType": "string",
          "name": "_apiUrl",
          "type": "string"
        }
      ],
      "name": "setApiUrl",
      "outputs": [],
      "stateMutability": "nonpayable",
      "type": "function"
    }
  ],
  "transactionHash": "0x0072d971117ef290ec6260839532784100e280279ef061b79e7c4302819af78b",
  "args": [],
  "solcInputHash": "e4246a58f144dd2a02e5934c0f8aaefc",
  "bytecode": "0x608060405234801561001057600080fd5b5061207a806100206000396000f3fe608060405234801561001057600080fd5b50600436106100f55760003560e01c80634988a569116100975780637456fed6116100665780637456fed6146102765780638367e12014610294578063e8c75a30146102b2578063f9c47875146102ce576100f5565b80634988a569146101da5780635f009382146101f65780636517579c146102265780636fbb5f621461025a576100f5565b80631ef3755d116100d35780631ef3755d1461017c5780631f9cb30f146101865780632dc03259146101a25780633fc0ee34146101be576100f5565b806303ff5aff146100fa57806313ad728c1461011857806315a2903514610148575b600080fd5b6101026102ea565b60405161010f9190611d63565b60405180910390f35b610132600480360381019061012d9190611a8e565b6102ef565b60405161013f9190611c0b565b60405180910390f35b610162600480360381019061015d9190611a65565b61032e565b604051610173959493929190611c41565b60405180910390f35b610184610399565b005b6101a0600480360381019061019b9190611a8e565b610662565b005b6101bc60048036038101906101b79190611a65565b6108b2565b005b6101d860048036038101906101d39190611a65565b610a6a565b005b6101f460048036038101906101ef9190611a8e565b610d0d565b005b610210600480360381019061020b9190611aca565b6110b5565b60405161021d9190611c26565b60405180910390f35b610240600480360381019061023b9190611a65565b6110e7565b604051610251959493929190611d10565b60405180910390f35b610274600480360381019061026f9190611aca565b61114c565b005b61027e611349565b60405161028b9190611cf5565b60405180910390f35b61029c611353565b6040516102a99190611cd3565b60405180910390f35b6102cc60048036038101906102c79190611b06565b6113e1565b005b6102e860048036038101906102e39190611a8e565b611430565b005b600381565b600060016000848152602001908152602001600020600401600083815260200190815260200160002060009054906101000a900460ff16905092915050565b600080600080600080600160008881526020019081526020016000209050600460008260000154815260200190815260200160002054955080600101549450806002015493508060030160009054906101000a900460ff169250806005015491505091939590929450565b60005b600280549050811015610534576000600282815481106103e5577f4e487b7100000000000000000000000000000000000000000000000000000000600052603260045260246000fd5b90600052602060002001549050600060016000838152602001908152602001600020905060005b60055481101561049e57600060046000838152602001908152602001600020549050600083600401600083815260200190815260200160002060006101000a81548160ff02191690831515021790555083817fa81314263b22c8076cb82368ad78b713fd974098450156dc541a466a488be63360405160405180910390a350808061049690611f0e565b91505061040c565b5060008160030160006101000a81548160ff021916908360058111156104ed577f4e487b7100000000000000000000000000000000000000000000000000000000600052602160045260246000fd5b0217905550817fa96209878fc4722b56527db6cf4b72ad6bfddb3ad9968f7de1125d02acc9aa1060405160405180910390a25050808061052c90611f0e565b91505061039c565b5060005b60055481101561060657600060046000838152602001908152602001600020549050600060036000838152602001908152602001600020905060008160020160016101000a81548160ff0219169083151502179055506000816004018190555060006006600084815260200190815260200160002060006101000a81548160ff021916908315150217905550817fc26eb30613e535870aeacfc24e58a8fb60e992f0d8bfe04ec9c98db26b53c5e560405160405180910390a2505080806105fe90611f0e565b915050610538565b50600260006106159190611910565b60006005819055503373ffffffffffffffffffffffffffffffffffffffff167f27563bd9f3c446b90907219bff4dda76f7ca7ede071560f5856f9848e04048b160405160405180910390a2565b816003600082815260200190815260200160002060020160019054906101000a900460ff166040518060400160405280600f81526020017f555345525f444f4e545f45584953540000000000000000000000000000000000815250906106fe576040517f08c379a00000000000000000000000000000000000000000000000000000000081526004016106f59190611cd3565b60405180910390fd5b5081836000600160008481526020019081526020016000209050600060046000836000015481526020019081526020016000205490506002600581111561076e577f4e487b7100000000000000000000000000000000000000000000000000000000600052602160045260246000fd5b8260030160009054906101000a900460ff1660058111156107b8577f4e487b7100000000000000000000000000000000000000000000000000000000600052602160045260246000fd5b1480156107c457508083145b6040518060400160405280601981526020017f5441534b5f4e4f545f41535349474e45445f544f5f55534552000000000000008152509061083b576040517f08c379a00000000000000000000000000000000000000000000000000000000081526004016108329190611cd3565b60405180910390fd5b506001806000888152602001908152602001600020600401600089815260200190815260200160002060006101000a81548160ff02191690831515021790555085877f20d16456d5ece6dcf2abfb5d533177e18ee2fabceb3908abdd928cee3370826860405160405180910390a350505050505050565b806003600082815260200190815260200160002060020160019054906101000a900460ff16156040518060400160405280601381526020017f555345525f414c52454144595f455849535453000000000000000000000000008152509061094f576040517f08c379a00000000000000000000000000000000000000000000000000000000081526004016109469190611cd3565b60405180910390fd5b508160046000600554815260200190815260200160002081905550600554600360008481526020019081526020016000206000018190555060016003600084815260200190815260200160002060020160006101000a81548160ff02191690831515021790555060016003600084815260200190815260200160002060020160016101000a81548160ff0219169083151502179055506000600360008481526020019081526020016000206001018190555060006003600084815260200190815260200160002060040181905550610a3360016005546116a690919063ffffffff16565b600581905550817f78997021e09413de1e36500ed07f9f6c73541162817fc3ea6a115e5e3d3affb960405160405180910390a25050565b8060006005811115610aa5577f4e487b7100000000000000000000000000000000000000000000000000000000600052602160045260246000fd5b6001600083815260200190815260200160002060030160009054906101000a900460ff166005811115610b01577f4e487b7100000000000000000000000000000000000000000000000000000000600052602160045260246000fd5b14156040518060400160405280600f81526020017f5441534b5f444f4e545f4558495354000000000000000000000000000000000081525090610b7a576040517f08c379a0000000000000000000000000000000000000000000000000000000008152600401610b719190611cd3565b60405180910390fd5b5060006001600084815260200190815260200160002090506000816000015490506000600460008381526020019081526020016000205490506000610bc96001846116a690919063ffffffff16565b9050600080610bd884896116bc565b5b60055481108015610be8575081155b15610caa57600554831415610bfc57600092505b600060046000858152602001908152602001600020549050610c1e818a611768565b92508215610c77578860046000868152602001908152602001600020547f84bc42ef07c2232243aaa102e563c1e1cdfebe2fb6d582d3084c40d7affdf16c87604051610c6a9190611c26565b60405180910390a3610ca4565b610c8b6001836116a690919063ffffffff16565b9150610ca16001856116a690919063ffffffff16565b93505b50610bd9565b81610d035760048660030160006101000a81548160ff02191690836005811115610cfd577f4e487b7100000000000000000000000000000000000000000000000000000000600052602160045260246000fd5b02179055505b5050505050505050565b816003600082815260200190815260200160002060020160019054906101000a900460ff166040518060400160405280600f81526020017f555345525f444f4e545f4558495354000000000000000000000000000000000081525090610da9576040517f08c379a0000000000000000000000000000000000000000000000000000000008152600401610da09190611cd3565b60405180910390fd5b50818360006001600084815260200190815260200160002090506000600460008360000154815260200190815260200160002054905060026005811115610e19577f4e487b7100000000000000000000000000000000000000000000000000000000600052602160045260246000fd5b8260030160009054906101000a900460ff166005811115610e63577f4e487b7100000000000000000000000000000000000000000000000000000000600052602160045260246000fd5b148015610e6f57508083145b6040518060400160405280601981526020017f5441534b5f4e4f545f41535349474e45445f544f5f555345520000000000000081525090610ee6576040517f08c379a0000000000000000000000000000000000000000000000000000000008152600401610edd9190611cd3565b60405180910390fd5b50866006600082815260200190815260200160002060009054906101000a900460ff16156040518060400160405280600d81526020017f555345525f4841535f5441534b0000000000000000000000000000000000000081525090610f81576040517f08c379a0000000000000000000000000000000000000000000000000000000008152600401610f789190611cd3565b60405180910390fd5b5060036001600089815260200190815260200160002060030160006101000a81548160ff02191690836005811115610fe2577f4e487b7100000000000000000000000000000000000000000000000000000000600052602160045260246000fd5b02179055506001600660008a815260200190815260200160002060006101000a81548160ff0219169083151502179055506000600360008a81526020019081526020016000209050600080600090505b826004015481101561107a578260030160008281526020019081526020016000205491508982146110675761106682610a6a565b5b808061107290611f0e565b915050611032565b50888a7f79abe3f1773abfb5f6cb7b5538ca39f03dcbb7ee4b9a991d76885cf70bd469fb60405160405180910390a350505050505050505050565b600060036000848152602001908152602001600020600301600083815260200190815260200160002054905092915050565b60008060008060008060036000888152602001908152602001600020905080600001549550806001015494508060020160009054906101000a900460ff1693508060020160019054906101000a900460ff169250806004015491505091939590929450565b8160006005811115611187577f4e487b7100000000000000000000000000000000000000000000000000000000600052602160045260246000fd5b6001600083815260200190815260200160002060030160009054906101000a900460ff1660058111156111e3577f4e487b7100000000000000000000000000000000000000000000000000000000600052602160045260246000fd5b146040518060400160405280600b81526020017f5441534b5f4558495354530000000000000000000000000000000000000000008152509061125b576040517f08c379a00000000000000000000000000000000000000000000000000000000081526004016112529190611cd3565b60405180910390fd5b50600060016000858152602001908152602001600020905060018160030160006101000a81548160ff021916908360058111156112c1577f4e487b7100000000000000000000000000000000000000000000000000000000600052602160045260246000fd5b02179055506000816000018190555060008160010181905550600081600201819055508281600501819055506002849080600181540180825580915050600190039060005260206000200160009091909190915055837f1e28175955a872c8252a6e5cf36ac6b318d074eb78b49731e5cb9ddc2d870b6360405160405180910390a250505050565b6000600554905090565b6000805461136090611edc565b80601f016020809104026020016040519081016040528092919081815260200182805461138c90611edc565b80156113d95780601f106113ae576101008083540402835291602001916113d9565b820191906000526020600020905b8154815290600101906020018083116113bc57829003601f168201915b505050505081565b8181600091906113f2929190611931565b507fd72e0c57dfc415d699dbb367f561821dd76f681a6d3916009299d4e89b5f3bcf8282604051611424929190611caf565b60405180910390a15050565b816000600581111561146b577f4e487b7100000000000000000000000000000000000000000000000000000000600052602160045260246000fd5b6001600083815260200190815260200160002060030160009054906101000a900460ff1660058111156114c7577f4e487b7100000000000000000000000000000000000000000000000000000000600052602160045260246000fd5b14156040518060400160405280600f81526020017f5441534b5f444f4e545f4558495354000000000000000000000000000000000081525090611540576040517f08c379a00000000000000000000000000000000000000000000000000000000081526004016115379190611cd3565b60405180910390fd5b50816003600082815260200190815260200160002060020160019054906101000a900460ff166040518060400160405280600f81526020017f555345525f444f4e545f45584953540000000000000000000000000000000000815250906115dd576040517f08c379a00000000000000000000000000000000000000000000000000000000081526004016115d49190611cd3565b60405180910390fd5b5060006115ea8486611768565b9050806040518060400160405280601481526020017f5441534b5f414c4c4f434154494f4e5f4641494c00000000000000000000000081525090611664576040517f08c379a000000000000000000000000000000000000000000000000000000000815260040161165b9190611cd3565b60405180910390fd5b5084847f84bc42ef07c2232243aaa102e563c1e1cdfebe2fb6d582d3084c40d7affdf16c60006040516116979190611c94565b60405180910390a35050505050565b600081836116b49190611d9a565b905092915050565b600060036000848152602001908152602001600020905060008060006001600086815260200190815260200160002060010154905060008460040154111561171d57611716600185600401546118fa90919063ffffffff16565b9250611725565b836004015492505b8360030160008481526020019081526020016000205491508284600401819055508184600301600083815260200190815260200160002081905550505050505050565b60008060036000858152602001908152602001600020905060006001600085815260200190815260200160002090508160020160009054906101000a900460ff1680156117d357506006600086815260200190815260200160002060009054906101000a900460ff16155b80156117ff575080600401600086815260200190815260200160002060009054906101000a900460ff16155b80156118135750600360ff16826004015411155b156118ed578382600301600084600401548152602001908152602001600020819055508160040154816001018190555061185b600183600401546116a690919063ffffffff16565b82600401819055508160000154816000018190555060028160030160006101000a81548160ff021916908360058111156118be577f4e487b7100000000000000000000000000000000000000000000000000000000600052602160045260246000fd5b02179055506118da8160050154426116a690919063ffffffff16565b81600201819055506001925050506118f4565b6000925050505b92915050565b600081836119089190611df0565b905092915050565b508054600082559060005260206000209081019061192e91906119b7565b50565b82805461193d90611edc565b90600052602060002090601f01602090048101928261195f57600085556119a6565b82601f1061197857803560ff19168380011785556119a6565b828001600101855582156119a6579182015b828111156119a557823582559160200191906001019061198a565b5b5090506119b391906119d4565b5090565b5b808211156119d05760008160009055506001016119b8565b5090565b5b808211156119ed5760008160009055506001016119d5565b5090565b600081359050611a0081612016565b92915050565b60008083601f840112611a1857600080fd5b8235905067ffffffffffffffff811115611a3157600080fd5b602083019150836001820283011115611a4957600080fd5b9250929050565b600081359050611a5f8161202d565b92915050565b600060208284031215611a7757600080fd5b6000611a85848285016119f1565b91505092915050565b60008060408385031215611aa157600080fd5b6000611aaf858286016119f1565b9250506020611ac0858286016119f1565b9150509250929050565b60008060408385031215611add57600080fd5b6000611aeb858286016119f1565b9250506020611afc85828601611a50565b9150509250929050565b60008060208385031215611b1957600080fd5b600083013567ffffffffffffffff811115611b3357600080fd5b611b3f85828601611a06565b92509250509250929050565b611b5481611e24565b82525050565b611b6381611e30565b82525050565b611b7281611e6e565b82525050565b611b8181611e80565b82525050565b6000611b938385611d89565b9350611ba0838584611e9a565b611ba983611fe4565b840190509392505050565b6000611bbf82611d7e565b611bc98185611d89565b9350611bd9818560208601611ea9565b611be281611fe4565b840191505092915050565b611bf681611e57565b82525050565b611c0581611e61565b82525050565b6000602082019050611c206000830184611b4b565b92915050565b6000602082019050611c3b6000830184611b5a565b92915050565b600060a082019050611c566000830188611b5a565b611c636020830187611bed565b611c706040830186611bed565b611c7d6060830185611b69565b611c8a6080830184611bed565b9695505050505050565b6000602082019050611ca96000830184611b78565b92915050565b60006020820190508181036000830152611cca818486611b87565b90509392505050565b60006020820190508181036000830152611ced8184611bb4565b905092915050565b6000602082019050611d0a6000830184611bed565b92915050565b600060a082019050611d256000830188611bed565b611d326020830187611bed565b611d3f6040830186611b4b565b611d4c6060830185611b4b565b611d596080830184611bed565b9695505050505050565b6000602082019050611d786000830184611bfc565b92915050565b600081519050919050565b600082825260208201905092915050565b6000611da582611e57565b9150611db083611e57565b9250827fffffffffffffffffffffffffffffffffffffffffffffffffffffffffffffffff03821115611de557611de4611f57565b5b828201905092915050565b6000611dfb82611e57565b9150611e0683611e57565b925082821015611e1957611e18611f57565b5b828203905092915050565b60008115159050919050565b6000819050919050565b6000819050611e4882612002565b919050565b6000819050919050565b6000819050919050565b600060ff82169050919050565b6000611e7982611e3a565b9050919050565b6000611e93611e8e83611e4d565b611ff5565b9050919050565b82818337600083830152505050565b60005b83811015611ec7578082015181840152602081019050611eac565b83811115611ed6576000848401525b50505050565b60006002820490506001821680611ef457607f821691505b60208210811415611f0857611f07611fb5565b5b50919050565b6000611f1982611e57565b91507fffffffffffffffffffffffffffffffffffffffffffffffffffffffffffffffff821415611f4c57611f4b611f57565b5b600182019050919050565b7f4e487b7100000000000000000000000000000000000000000000000000000000600052601160045260246000fd5b7f4e487b7100000000000000000000000000000000000000000000000000000000600052602160045260246000fd5b7f4e487b7100000000000000000000000000000000000000000000000000000000600052602260045260246000fd5b6000601f19601f8301169050919050565b60008160001b9050919050565b6006811061201357612012611f86565b5b50565b61201f81611e30565b811461202a57600080fd5b50565b61203681611e57565b811461204157600080fd5b5056fea264697066735822122044e7a03b262feeb0f29cec6f7025b8bb14abfc11cd5711271f8d6f7baa4b116464736f6c63430008040033",
  "devdoc": {
    "kind": "dev",
    "methods": {
      "createTask(bytes32,uint256)": {
        "params": {
          "_taskId": "The task's id."
        }
      }
    },
    "version": 1
  },
  "userdoc": {
    "events": {
      "TaskCreated(bytes32)": {
        "notice": "Events"
      },
      "TasksRestart(address)": {
        "notice": "Events"
      }
    },
    "kind": "user",
    "methods": {
      "apiUrl()": {
        "notice": "State"
      },
      "createTask(bytes32,uint256)": {
        "notice": "Create a new task."
      },
      "setApiUrl(string)": {
        "notice": "ACL"
      }
    },
    "version": 1
  },
  "storageLayout": {
    "storage": [
      {
        "astId": 325,
        "contract": "contracts/allocation-models/RoundRobinTAA.sol:RoundRobinTAA",
        "label": "apiUrl",
        "offset": 0,
        "slot": "0",
        "type": "t_string_storage"
      },
      {
        "astId": 409,
        "contract": "contracts/allocation-models/RoundRobinTAA.sol:RoundRobinTAA",
        "label": "tasks",
        "offset": 0,
        "slot": "1",
        "type": "t_mapping(t_bytes32,t_struct(Task)458_storage)"
      },
      {
        "astId": 412,
        "contract": "contracts/allocation-models/RoundRobinTAA.sol:RoundRobinTAA",
        "label": "taskIds",
        "offset": 0,
        "slot": "2",
        "type": "t_array(t_bytes32)dyn_storage"
      },
      {
        "astId": 417,
        "contract": "contracts/allocation-models/RoundRobinTAA.sol:RoundRobinTAA",
        "label": "users",
        "offset": 0,
        "slot": "3",
        "type": "t_mapping(t_bytes32,t_struct(User)442_storage)"
      },
      {
        "astId": 421,
        "contract": "contracts/allocation-models/RoundRobinTAA.sol:RoundRobinTAA",
        "label": "userIndex",
        "offset": 0,
        "slot": "4",
        "type": "t_mapping(t_uint256,t_bytes32)"
      },
      {
        "astId": 423,
        "contract": "contracts/allocation-models/RoundRobinTAA.sol:RoundRobinTAA",
        "label": "userIndexLength",
        "offset": 0,
        "slot": "5",
        "type": "t_uint256"
      },
      {
        "astId": 427,
        "contract": "contracts/allocation-models/RoundRobinTAA.sol:RoundRobinTAA",
        "label": "userTaskRegistry",
        "offset": 0,
        "slot": "6",
        "type": "t_mapping(t_bytes32,t_bool)"
      }
    ],
    "types": {
      "t_array(t_bytes32)dyn_storage": {
        "base": "t_bytes32",
        "encoding": "dynamic_array",
        "label": "bytes32[]",
        "numberOfBytes": "32"
      },
      "t_bool": {
        "encoding": "inplace",
        "label": "bool",
        "numberOfBytes": "1"
      },
      "t_bytes32": {
        "encoding": "inplace",
        "label": "bytes32",
        "numberOfBytes": "32"
      },
      "t_enum(Status)404": {
        "encoding": "inplace",
        "label": "enum RoundRobinTAA.Status",
        "numberOfBytes": "1"
      },
      "t_mapping(t_bytes32,t_bool)": {
        "encoding": "mapping",
        "key": "t_bytes32",
        "label": "mapping(bytes32 => bool)",
        "numberOfBytes": "32",
        "value": "t_bool"
      },
      "t_mapping(t_bytes32,t_struct(Task)458_storage)": {
        "encoding": "mapping",
        "key": "t_bytes32",
        "label": "mapping(bytes32 => struct RoundRobinTAA.Task)",
        "numberOfBytes": "32",
        "value": "t_struct(Task)458_storage"
      },
      "t_mapping(t_bytes32,t_struct(User)442_storage)": {
        "encoding": "mapping",
        "key": "t_bytes32",
        "label": "mapping(bytes32 => struct RoundRobinTAA.User)",
        "numberOfBytes": "32",
        "value": "t_struct(User)442_storage"
      },
      "t_mapping(t_uint256,t_bytes32)": {
        "encoding": "mapping",
        "key": "t_uint256",
        "label": "mapping(uint256 => bytes32)",
        "numberOfBytes": "32",
        "value": "t_bytes32"
      },
      "t_string_storage": {
        "encoding": "bytes",
        "label": "string",
        "numberOfBytes": "32"
      },
      "t_struct(Task)458_storage": {
        "encoding": "inplace",
        "label": "struct RoundRobinTAA.Task",
        "members": [
          {
            "astId": 444,
            "contract": "contracts/allocation-models/RoundRobinTAA.sol:RoundRobinTAA",
            "label": "userIndex",
            "offset": 0,
            "slot": "0",
            "type": "t_uint256"
          },
          {
            "astId": 446,
            "contract": "contracts/allocation-models/RoundRobinTAA.sol:RoundRobinTAA",
            "label": "allocationIndex",
            "offset": 0,
            "slot": "1",
            "type": "t_uint256"
          },
          {
            "astId": 448,
            "contract": "contracts/allocation-models/RoundRobinTAA.sol:RoundRobinTAA",
            "label": "endDate",
            "offset": 0,
            "slot": "2",
            "type": "t_uint256"
          },
          {
            "astId": 451,
            "contract": "contracts/allocation-models/RoundRobinTAA.sol:RoundRobinTAA",
            "label": "status",
            "offset": 0,
            "slot": "3",
            "type": "t_enum(Status)404"
          },
          {
            "astId": 455,
            "contract": "contracts/allocation-models/RoundRobinTAA.sol:RoundRobinTAA",
            "label": "rejecters",
            "offset": 0,
            "slot": "4",
            "type": "t_mapping(t_bytes32,t_bool)"
          },
          {
            "astId": 457,
            "contract": "contracts/allocation-models/RoundRobinTAA.sol:RoundRobinTAA",
            "label": "reallocationTime",
            "offset": 0,
            "slot": "5",
            "type": "t_uint256"
          }
        ],
        "numberOfBytes": "192"
      },
      "t_struct(User)442_storage": {
        "encoding": "inplace",
        "label": "struct RoundRobinTAA.User",
        "members": [
          {
            "astId": 429,
            "contract": "contracts/allocation-models/RoundRobinTAA.sol:RoundRobinTAA",
            "label": "index",
            "offset": 0,
            "slot": "0",
            "type": "t_uint256"
          },
          {
            "astId": 431,
            "contract": "contracts/allocation-models/RoundRobinTAA.sol:RoundRobinTAA",
            "label": "benefits",
            "offset": 0,
            "slot": "1",
            "type": "t_uint256"
          },
          {
            "astId": 433,
            "contract": "contracts/allocation-models/RoundRobinTAA.sol:RoundRobinTAA",
            "label": "available",
            "offset": 0,
            "slot": "2",
            "type": "t_bool"
          },
          {
            "astId": 435,
            "contract": "contracts/allocation-models/RoundRobinTAA.sol:RoundRobinTAA",
            "label": "exists",
            "offset": 1,
            "slot": "2",
            "type": "t_bool"
          },
          {
            "astId": 439,
            "contract": "contracts/allocation-models/RoundRobinTAA.sol:RoundRobinTAA",
            "label": "allocatedTasks",
            "offset": 0,
            "slot": "3",
            "type": "t_mapping(t_uint256,t_bytes32)"
          },
          {
            "astId": 441,
            "contract": "contracts/allocation-models/RoundRobinTAA.sol:RoundRobinTAA",
            "label": "allocatedTasksLength",
            "offset": 0,
            "slot": "4",
            "type": "t_uint256"
          }
        ],
        "numberOfBytes": "160"
      },
      "t_uint256": {
        "encoding": "inplace",
        "label": "uint256",
        "numberOfBytes": "32"
      }
    }
  }
}